:100000000C942A000C943F000C943F000C943F0089
:100010000C943F000C943F000C943F000C943F0064
:100020000C943F000C943F000C943F000C943F0054
:100030000C943F000C943F000C943F000C943F0044
:100040000C943F000C943F000C943F000C943F0034
:100050000C943F0011241FBECFE5D8E0DEBFCDBF1A
:1000600010E0A0E6B0E0EAEDF8E002C005900D92E5
:10007000A43BB107D9F70E94D9000C946B040C94EF
:10008000000085BB88B38E7F88BB88B38D7F88BB1B
:1000900088B3846088BB82E08A95F1F700C088B39A
:1000A0008B7F88BB8FE99FE00197F1F700C00000CC
:1000B000089585BB88B3816088BB88B38D7F88BB7A
:1000C00088B3846088BB82E08A95F1F700C088B36A
:1000D0008B7F88BB8FEC97E00197F1F700C00000A1
:1000E00008958FEF87BB84BB8FE39CE90197F1F7FD
:1000F00000C0000088E30E9441008CE00E944100A3
:1001000081E00E94410080E80E94410008950F9321
:100110001F93CF93DF938C01C0E0D0E003C00E9417
:1001200059002196F801EC0FFD1F80818111F7CF56
:10013000DF91CF911F910F91089581E00E944100BE
:1001400080E80E9441000895FC012081462F30E0A4
:10015000062E02C0359527950A94E2F7C9018170F1
:10016000992720FD23C0AFE3BCE91197F1F700C048
:100170000000208130E002C0359527956A95E2F7AE
:1001800020FF07C008958FE39CE90197F1F700C0B5
:100190000000208130E0042E02C0359527950A9496
:1001A000E2F720FFF0CF81E090E0089580E090E05A
:1001B0000895CF93DF93CDB7DEB764970FB6F89469
:1001C000DEBF0FBECDBF0E94710080E690E00E94AE
:1001D00087001ABA8FEF8BBBE12CF12C00E010E006
:1001E00060E089E390E00E94A400892B91F00F5F0A
:1001F0001F4F0E949D0083E790E00E9487002FEF31
:1002000080E792E0215080409040E1F700C000007C
:10021000E7CF61E089E390E00E94A400892B99F088
:100220002FEFE21AF20A0E949D008CE790E00E94F4
:1002300087008FEF90E722E0815090402040E1F767
:1002400000C00000CDCF62E089E390E00E94A400EE
:10025000892B31F20E949D001F930F930F2EF0E81F
:10026000CF2EF0E0DF2EF02DDF92CF925E018BE0FB
:10027000A80EB11CBF92AF920E948101FF92EF9233
:10028000DF92CF92CE0101966C019F938F930E94D3
:10029000810183E890E00E948700C5010E948700E9
:1002A0008AE890E00E948700C6010E94870080ECE7
:1002B0000E9441000FB6F894DEBF0FBECDBFE0161E
:1002C000F1062CF481E990E00E9487000CC00E1525
:1002D0001F052CF48FE990E00E94870004C088EA93
:1002E00090E00E9487009FEF21EE84E09150204033
:1002F0008040E1F700C00000E12CF12C00E010E0AC
:100300006FCFAEE0B0E0E7E8F1E00C9442040D8975
:100310001E8986E08C831A8309838FEF9FE79E8373
:100320008D83AE01475E5F4F6F89788DCE01019658
:100330000E94A301EF81F885E00FF11F10822E9635
:10034000E4E00C945E04ABE0B0E0E9EAF1E00C9488
:1003500034046C017B018A01FC01178216828381BF
:1003600081FFCCC1CE0101963C01F6019381F701DA
:1003700093FD859193FF81917F01882309F4BAC190
:10038000853239F493FD859193FF81917F01853208
:1003900029F4B60190E00E949A03E7CF912C212C1A
:1003A000312CFFE1F315D8F08B3279F038F480323C
:1003B00079F08332A1F4232D20611DC08D3261F0CC
:1003C000803369F4232D216016C0832D8260382E7E
:1003D000E32DE4603E2E2AC0F32DF8601DC037FCEB
:1003E0002DC020ED280F2A3040F08E32B9F436FCB3
:1003F00081C1232D2064322E19C036FE06C08AE04A
:10040000989E200D1124922E11C0EAE02E9E200D00
:100410001124222EF32DF0623F2E08C08C3621F4D9
:10042000832D8068382E02C0883641F4F70193FD91
:10043000859193FF81917F018111B3CF982F9F7D8B
:100440009554933028F40C5F1F4F9FE399830DC0A0
:10045000833631F0833771F0833509F059C021C0FC
:10046000F801808189830E5F1F4F88248394912C2B
:10047000530113C02801F2E04F0E511CF801A08077
:10048000B18036FE03C0692D70E002C06FEF7FEFD0
:10049000C5010E948F034C018201F32DFF773F2E8F
:1004A00016C0280122E0420E511CF801A080B18044
:1004B00036FE03C0692D70E002C06FEF7FEFC5010B
:1004C0000E9484034C01F32DF0683F2E820133FC1F
:1004D0001BC0822D90E088169906B0F4B60180E228
:1004E00090E00E949A032A94F4CFF50137FC85919D
:1004F00037FE81915F01B60190E00E949A032110BE
:100500002A9421E0821A91088114910471F7E8C0BD
:10051000843611F0893641F5F80137FE07C0608155
:100520007181828193810C5F1F4F08C0608171814E
:10053000072E000C880B990B0E5F1F4FF32DFF76D3
:100540003F2E97FF09C090958095709561957F4FDC
:100550008F4F9F4FF0683F2E2AE030E0A3010E94AA
:10056000D603882E861845C0853731F4232D2F7E7B
:10057000B22E2AE030E025C0932D997FB92E8F3618
:10058000C1F018F4883579F0B5C0803719F0883794
:1005900021F0B0C0E92FE061BE2EB4FE0DC0FB2DEE
:1005A000F460BF2E09C034FE0AC0292F2660B22E87
:1005B00006C028E030E005C020E130E002C020E1C4
:1005C00032E0F801B7FE07C06081718182819381BA
:1005D0000C5F1F4F06C06081718180E090E00E5F6C
:1005E0001F4FA3010E94D603882E8618FB2DFF778C
:1005F0003F2E36FE0DC0232D2E7FA22E891458F4D7
:1006000034FE0BC032FC09C0832D8E7EA82E05C09F
:10061000B82CA32C03C0B82C01C0B92CA4FE0FC069
:10062000FE01E80DF11D8081803321F49A2D997E21
:10063000A92E09C0A2FE06C0B394B39404C08A2DAB
:10064000867809F0B394A3FC11C0A0FE06C0B214D2
:1006500088F4280C922C9B180EC0B21460F4B601DA
:1006600080E290E00E949A03B394F7CFB21418F49A
:100670002B1802C0982C212CA4FE10C0B60180E3D8
:1006800090E00E949A03A2FE17C0A1FC03C088E775
:1006900090E002C088E590E0B6010CC08A2D867813
:1006A00059F0A1FE02C08BE201C080E2A7FC8DE2FE
:1006B000B60190E00E949A03891438F4B60180E3F1
:1006C00090E00E949A039A94F7CF8A94F301E80D80
:1006D000F11D8081B60190E00E949A038110F5CF50
:1006E000222009F442CEB60180E290E00E949A03F3
:1006F0002A94F6CFF6018681978102C08FEF9FEF93
:100700002B96E2E10C945004FC010590615070407E
:100710000110D8F7809590958E0F9F1F0895FC01CA
:100720006150704001900110D8F7809590958E0F20
:100730009F1F08950F931F93CF93DF93FB01238196
:1007400021FD03C08FEF9FEF2CC022FF16C0468112
:100750005781248135814217530744F4A081B18128
:100760009D012F5F3F4F318320838C9326813781FA
:100770002F5F3F4F3783268314C08B01EC01FB01B1
:100780000084F185E02D0995892BE1F6D8011696B4
:100790008D919C911797019617969C938E9316971F
:1007A000CE01DF91CF911F910F910895FA01AA27F1
:1007B000283051F1203181F1E8946F936E7F6E5FA4
:1007C0007F4F8F4F9F4FAF4FB1E03ED0B4E03CD052
:1007D000670F781F891F9A1FA11D680F791F8A1F35
:1007E000911DA11D6A0F711D811D911DA11D20D09C
:1007F00009F468943F912AE0269F11243019305D56
:100800003193DEF6CF010895462F4770405D419346
:10081000B3E00FD0C9F7F6CF462F4F70405D4A3393
:1008200018F0495D31FD4052419302D0A9F7EACF5B
:10083000B4E0A6959795879577956795BA95C9F78A
:1008400000976105710508959B01AC010A2E06947D
:100850005795479537952795BA95C9F7620F731F36
:10086000841F951FA01D08952F923F924F925F9273
:100870006F927F928F929F92AF92BF92CF92DF92B0
:10088000EF92FF920F931F93CF93DF93CDB7DEB715
:10089000CA1BDB0B0FB6F894DEBF0FBECDBF0994A9
:1008A0002A88398848885F846E847D848C849B8400
:1008B000AA84B984C884DF80EE80FD800C811B810E
:1008C000AA81B981CE0FD11D0FB6F894DEBF0FBE3D
:0A08D000CDBFED010895F894FFCFAD
:1008DA00766F746520746F2063616E6469646174F5
:1008EA00657300636F6E677265737300424A5000E6
:1008FA00256400436F6E67723D002020424A503DD6
:10090A0000436F6E67726573732077696E73004276
:10091A004A502077696E73004974277320612074E6
:04092A0069650000FB
:00000001FF
